:100000000C94F7000C941F010C941F010C94470EE4
:100010000C94470E0C94470E0C941F010C941F0176
:100020000C941F010C941F010C941F010C941F01D0
:100030000C941F010C94200E0C941F010C941F01B2
:100040000C94D60D0C941F010C941F010C941F01ED
:100050000C941F010C941F010C941F010C941F01A0
:100060000C941F010C941F0100407A10F35A00A059
:10007000724E18090010A5D4E80000E87648170071
:1000800000E40B54020000CA9A3B000000E1F505B1
:10009000000080969800000040420F000000A086FB
:1000A00001000000102700000000E803000000002D
:1000B0006400000000000A000000000001000000D1
:1000C00000002C76D888DC674F0823DFC1DFAE59EB
:1000D000E1B1B796E5E3E453C63AE651997696E87E
:1000E000E6C28426EB898C9B62ED407C6FFCEFBC02
:1000F0009C9F40F2BAA56FA5F490055A2AF75C932D
:100100006B6CF9676DC11BFCE0E40D47FEF520E662
:10011000B500D0ED902E0300943577050080841E45
:10012000080000204E0A000000C80C333333330FA0
:10013000986E12831141EF8D2114893BE65516CF3D
:10014000FEE6DB18D1844B381BF77C1D901DA4BB49
:10015000E424203284725E228100C9F124ECA1E5FE
:100160003D27CDCCCC3D0AD7233C17B7D13877CC2F
:100170002B329595E6241FB14F0A00002041000064
:10018000C84200401C4620BCBE4CCA1B0E5AAEC51D
:100190009D7400000000240027002A0000000008D1
:1001A000000201000003040700000000000000003E
:1001B00000000000230026002900000000002500A8
:1001C00028002B00040404040404040402020202B4
:1001D000020203030303030301020408102040800A
:1001E000010204081020010204081020CC0F112481
:1001F0001FBECFEFD8E0DEBFCDBF22E0A8E9B1E05F
:1002000001C01D92A830B207E1F711E0A0E0B1E013
:10021000E2E3FDE202C005900D92A839B107D9F7DB
:1002200010E0C7EFD0E004C02197FE010E949A14AD
:10023000C63FD107C9F70E94040F0C9497160C947F
:100240000000833081F028F4813099F08230A9F0E9
:1002500008958730A9F08830C9F08430B1F48091D6
:1002600080008F7D03C0809180008F778093800015
:10027000089584B58F7784BD089584B58F7DFBCFB5
:100280008091B0008F778093B00008958091B00086
:100290008F7DF9CF1F93CF93DF93282F30E0F901A3
:1002A000E456FE4F8491F901E852FE4FD491F901D2
:1002B000EC53FE4FC491CC23A9F0162F81110E945C
:1002C0002101EC2FF0E0EE0FFF1FE654FE4FA59149
:1002D000B4918FB7F894EC91111108C0D095DE233A
:1002E000DC938FBFDF91CF911F910895DE2BF8CF64
:1002F000CF93DF9390E0FC01E852FE4F24918C53A2
:100300009E4FFC0184918823D1F090E0880F991FC3
:10031000FC01EE56FE4FA591B491FC01E654FE4F50
:10032000C591D49161110EC09FB7F8948C91E22FC2
:10033000E0958E238C932881E223E8839FBFDF9191
:10034000CF9108958FB7F894EC91E22BEC938FBF87
:10035000F6CF81E0809398010895FC017583648352
:10036000138212820895AF92BF92CF92DF92EF92E2
:10037000FF920F931F93CF93DF936C017B018B014F
:10038000040F151FEB015E01AE18BF08C017D1079F
:1003900059F06991D601ED91FC910190F081E02D29
:1003A000C6010995892B79F7C501DF91CF911F917E
:1003B0000F91FF90EF90DF90CF90BF90AF90089596
:1003C000089520910202309103022817390771F431
:1003D0009091000280910102981741F0E091000293
:1003E000F0E0E756FE4F808190E008958FEF9FEF99
:1003F00008950895EF92FF920F931F93CF93DF9389
:10040000DC015C96ED90FC905D97E114F10479F4C9
:1004100081E090E013969C938E93129790E080E099
:10042000DF91CF911F910F91FF90EF90089551961A
:10043000ED91FC91529750968C915097982F9095F2
:100440000FB75E962C915E97122F127021FD60956A
:10045000F8942081112319F1282B2083E70121979B
:10046000F1F728E0462F50E0308160FF1AC0382BAA
:100470003083E7012197F1F7BA017595679521500F
:1004800089F7112381F08081892380830FBF5C96D7
:100490008D919C910197F1F781E090E0C1CF2923E4
:1004A000DCCF3923E5CF9081892BEFCF2091020259
:1004B000309103022817390761F4809101022091DD
:1004C000000290E0805C9F4F821B91098F739927F7
:1004D000089590E080E00895209102023091030297
:1004E00028173907B9F490910002809101029817FA
:1004F00089F0E0910002F0E0E756FE4F8081209104
:10050000000230E02F5F3F4F2F733327209300020C
:1005100090E008958FEF9FEF089590E080E00895B8
:10052000EF92FF920F931F93CF93DF938C018091F3
:1005300098018823E1F310929801780186E0E80E93
:10054000F11CD0E0C0E0F80184819581C817D9077B
:1005500034F5F701A191B1917F01F8018281938176
:1005600012962D913C911397820F931F13969C9393
:100570008E93129714962D913C911597821793079D
:1005800064F013961C921E921297ED91FC911197B4
:100590000280F381E02DCD0109952196D4CFDF9122
:1005A000CF911F910F91FF90EF900895FC0124814E
:1005B0003581293031057CF4F9013396EE0FFF1FA8
:1005C000E80FF91F718360832F5F3F4FFC01358374
:1005D000248381E0089580E008956F3FB1F0E62F15
:1005E000E295EF7044E0E49F90011124DC01ED916D
:1005F000FC91E20FF31F6F70B8E06B9FC0011124F4
:1006000062817381860F971F089590E080E00895BE
:10061000FC019289915084E0989F90011124A08957
:10062000B189A20FB31F1296ED91FC9113973097E9
:10063000E9F011962C9111978C912817B8F481E06C
:10064000820F11968C9388E0289FA0011124E40F5B
:10065000F51F309759F014828FEF85831782168229
:10066000BF01892F8295807F820F089560E070E03E
:100670008FEF0895CF93DF93EC01A881B981F0E06B
:10068000E0E0109741F1CD01049668177907F1F485
:1006900012969C911297915012969C9312979111D9
:1006A0001AC08D919C911197309769F09183808346
:1006B000EA01E881F9810280F381E02DBD01CA01E0
:1006C000DF91CF91099499838883F2CFFD010D903A
:1006D000BC91A02DD6CFDF91CF9108958F929F929C
:1006E000AF92BF92CF92DF92EF92FF920F931F9340
:1006F000CF93DF938C01EB01FC01848180FF0AC062
:1007000048815981608171816C5F7F4FCE01039672
:100710000E943A03F8018481807681F10115110568
:1007200069F1D0805E01F5E1AF0EB11C4E0183E0AE
:10073000880E911CEFEFDE16F1F06D2DC5010E94C1
:10074000ED027C01FC01C580848187FF07C04881E0
:10075000598166817781C4010E943A03BE01C701B5
:100760000E946E03F701848180788483898D85835C
:10077000D98EDC2CDFCFF801D082D182DF91CF91EE
:100780001F910F91FF90EF90DF90CF90BF90AF90AF
:100790009F908F900895DC019A968D919C91DC0139
:1007A000ED91FC910284F385E02D09950895DC011B
:1007B0009A968D919C91DC01ED91FC910084F185DC
:1007C000E02D099521E0892B09F420E0822F08957E
:1007D0000F931F93CF93DF938C01DC019A96CD91F9
:1007E000DC91FB014481558160817181E881F9814F
:1007F0000280F381E02DCE010995E881F981028024
:10080000F381E02D42E050E066E571E0CE0109950C
:10081000D8019A968D919C91DC01ED91FC91068016
:10082000F781E02DDF91CF911F910F910994CF9324
:10083000DF93FC0124A530E0F901E456FE4F8491DA
:10084000F901E852FE4FD491F901EC53FE4FC491E7
:10085000CC2379F081110E942101EC2FF0E0EE0F02
:10086000FF1FE055FE4FA591B491EC91ED2381E07F
:1008700009F480E08170DF91CF910895CB010C9451
:10088000A0140E9482160F931F93CF93DF93EC0165
:1008900088819981009759F02A813B812617370773
:1008A00030F081E0DF91CF911F910F9108958B017E
:1008B0006F5F7F4F0E94C515009759F09983888319
:1008C0001B830A832C813D81232B59F7FC01108265
:1008D000E8CF80E0E7CFCF92DF92EF92FF920F93C5
:1008E0001F93CF93DF938C01DC019296ED91FC91E5
:1008F000E80FF91F12826C01B2E0CB0ED11CC114BB
:10090000D10449F1F60101900020E9F73197EC1983
:10091000FD09F1F0DC01ED90FC90D7011496CD912A
:10092000DC91CE0FDF1FBE01C7010E944304882364
:1009300091F0F7012081318184819581B601820F88
:10094000931F0E949016D7011596DC93CE931497AF
:10095000F80113A212A2D80192968D919C91DF9179
:10096000CF911F910F91FF90EF90DF90CF9008955E
:100970001F93CF93DF93EC01162F8AA19BA10196C1
:100980008097B8F48AA19BA19C012F5F3F4F3BA3A6
:100990002AA38C0F9D1FFC01128321E030E08CA163
:1009A0009DA1820F931F9DA38CA3DF91CF911F91D7
:1009B0000895CE010E946B04892B21F330E020E0E2
:1009C000EECFBF92CF92DF92EF92FF920F931F93E1
:1009D000CF93DF93EC016A018B017B01E40EF51EDE
:1009E000E016F106D1F0F801B1908F018AA19BA128
:1009F0000196809760F48AA19BA19C012F5F3F4FD5
:100A00003BA32AA38C0F9D1FFC01B282E9CFCE012C
:100A10000E946B04892B79F3E3CF4CA15DA14C0DAF
:100A20005D1D5DA34CA3DF91CF911F910F91FF90AE
:100A3000EF90DF90CF90BF9008958F929F92AF92EA
:100A4000BF92CF92DF92EF92FF920F931F93CF93BB
:100A5000DF93CDB7DEB766970FB6F894DEBF0FBE53
:100A6000CDBF6C018E01095E1F4F78018AE0882E90
:100A7000912CA12CB12CCB01BA01A50194010E94AB
:100A80007814942F852F605DF80162938F01A9017E
:100A9000692F782F411551056105710561F7A7018F
:100AA0004E1B5F0BBF01C6010E94E10466960FB6A4
:100AB000F894DEBF0FBECDBFDF91CF911F910F9194
:100AC000FF90EF90DF90CF90BF90AF909F908F906E
:100AD0000895FB0101900020E9F73197AF01461B13
:100AE000570B0C94E1041F93CF93DF93E9E5F1E0FA
:100AF0001281112379F0329621816213F9CFEC0132
:100B00006CE50E94B804612FCE01DF91CF911F9157
:100B10000C94B8046111F9CF6AE671E0DF91CF91CE
:100B20001F910C946905CF92DF92EF92FF920F9381
:100B30001F93CF93DF938C016B017A0162E20E94D5
:100B4000B804E601EC0CFD1CCE15DF0529F0699117
:100B5000C8010E947305F8CF62E2C801DF91CF910E
:100B60001F910F91FF90EF90DF90CF900C94B804FD
:100B70002F923F924F925F926F927F928F929F92AD
:100B8000AF92BF92CF92DF92EF92FF920F931F939B
:100B9000CF93DF93CDB7DEB76C970FB6F894DEBF77
:100BA0000FBECDBF8C011B01DC0114968C911497F4
:100BB0008F77883009F4B2C2E8F4843009F469C24E
:100BC00048F4833009F49FC261E771E0C1010E94DB
:100BD00069051CC2853009F470C28630A9F78C9172
:100BE00066E771E0811102C06BE771E0C1010E940C
:100BF00069056DC28C30F1F1C8F48A3029F7CD90C7
:100C0000DD90ED90FC90B701A601F7FE0BC06DE200
:100C1000C1010E94B80444275527BA014C195D0947
:100C20006E097F09C1010E941D0551C2803209F47D
:100C3000F7C1803449F66BE5C1010E94B804F801A0
:100C400010811F3F09F4E7C1D10196968D919C91C7
:100C5000612F45960E94ED028C01B1010E94B805FA
:100C6000F80115811F3F09F4D6C16CE2C1010E9451
:100C7000B804E7CFF801C080D180E280F380A701FB
:100C80009601C701B6010E94611281119DCF20E03B
:100C900030E0A901C701B6010E946112882379F0F2
:100CA000A7019601C701B6010E94BD139B01AC01CB
:100CB000C701B6010E946112882309F485CF20E0A4
:100CC00030E0A901C701B6010E94611287FF08C088
:100CD0006DE2C1010E94B804F7FAF094F7F8F094BD
:100CE00020E836E948E15BE4C701B6010E945F14E1
:100CF00087FD88C074E1A72EB12C00E210E0188EA9
:100D00001F8AF501E658FE4F259135914591549182
:100D1000C701B6010E945F1487FD13C0F501EE59AB
:100D2000FE4F2591359145915491C701B6010E941E
:100D3000C7126B017C012F89388D200F311F388F2E
:100D40002F8B1595079534E0A31AB1088CEFA816E0
:100D50008FEFB806B1F655245A9420E030E0A9018F
:100D6000C701B6010E945F1418160CF052C02CEA9D
:100D700035EC47E257E3C701B6010E94611218162D
:100D80000CF447C0A52DB4E0AB02C0011124B12C76
:100D9000A12CFC01EE59FE4F3F019C0126583E4F0D
:100DA00049013FEF531609F434C0F301EA0DFB1D6E
:100DB000659175918591949120E030E040E251E495
:100DC0000E94C712A70196010E945F1418169CF496
:100DD000F401EA0DFB1D2591359145915491C70110
:100DE000B6010E94C7126B017C018F89988D801B10
:100DF000910B988F8F8B159507955A9494E0A91AAB
:100E0000B108CFCF00E210E055E0552E188E1F8AB2
:100E1000A4CFC701B6010E9430144B015C012B0125
:100E20003C0106E080E492E4AFE0B0E0898F9A8F65
:100E3000AB8FBC8F102F01509AE04916510461040A
:100E40007104C8F0698D7A8D8B8D9C8D2AE030E01D
:100E500040E050E00E947814298F3A8F4B8F5C8FCE
:100E6000C301B2012AE030E040E050E00E94781473
:100E700029013A01DFCFC501B4010E9466129B012E
:100E8000AC01C701B6010E94BC136B017C01698DE6
:100E90007A8D8B8D9C8D0E9466129B01AC01C701DF
:100EA000B6010E94C7122B013C010E9430146B0155
:100EB0007C010E9466129B01AC01C301B2010E9439
:100EC000BC139B01AC010E94BD130E943014C60EDE
:100ED000D71EE81EF91E898D9A8DAB8DBC8DC81664
:100EE000D906EA06FB06D8F09FEF891A990AA90AE3
:100EF000B90AAF89B88DAB2B39F1BAE08B169104E2
:100F0000A104B10408F1EF89F88D3196F88FEF8BC9
:100F1000C12CD12C7601812C912C540183942AE090
:100F2000422E512C612C712CC701B601A3019201F4
:100F30000E947814672B682B692B51F4111644F426
:100F400069017A011150F0CFC12CD12C7601E7CF85
:100F5000B501A401C1010E941D05112371F14E01CB
:100F6000F1E18F0E911C012F54019AE0492E512C72
:100F7000612C712C015068F0C701B601A3019201E8
:100F80000E947814605DD4016E934D0169017A016D
:100F9000F1CF812F90E0BC0160957095F501E81BC1
:100FA000F90B31978EE2808344275527461B570B58
:100FB0006A0D7B1DC1010E94E104EF89F88DEF2BC2
:100FC00029F165E6C1010E94B8040F89188D17FF49
:100FD00007C06DE2C1010E94B80411950195110985
:100FE000FE0177969F018AE0E82EF12CC801B70137
:100FF0000E946414805D82938B01672BB9F7A9016D
:101000004E1B5F0BBF01C1010E94E104D101949608
:101010008D919C915FC06DE5C1010E94B804F6CF2F
:101020006BE7C1010E94B804F80110811F3F79F1FC
:10103000D10196968D919C91612F45960E94ED026B
:101040008C01FC01C680D78062E2C1010E94B80415
:101050007601D7016D917D01662321F0C1010E94C7
:101060007305F7CF62E2C1010E94B8046AE3C101CF
:101070000E94B804B101C8010E94B805F8011581A9
:101080001F3F29F06CE2C1010E94B804CFCF6DE789
:10109000C3CFF8016081718150E040E061157105B6
:1010A00041F0FB0101900020E9F73197AF01461BA9
:1010B000570BC1010E949305A9CFED91FC9143818B
:1010C00050E0BF016C5F7F4FC1010E949305F101A9
:1010D00084A195A16C960FB6F894DEBF0FBECDBF6C
:1010E000DF91CF911F910F91FF90EF90DF90CF9004
:1010F000BF90AF909F908F907F906F905F904F9038
:101100003F902F900895ED91FC91438150E0BF01F5
:101110006C5F7F4FC1010E94E104D9CF4D915D9179
:101120006D917C917FCDCB01BA010C94C515CF9305
:10113000DF93EC0188819981009711F00E943C15A2
:10114000198218821D821C821B821A82DF91CF9124
:101150000895EF92FF920F931F93CF93DF93EC01CB
:101160007B018A01BA010E94430481110BC0CE01A8
:101170000E949708CE01DF91CF911F910F91FF90B0
:10118000EF9008951D830C83B701888199810E9497
:101190009016F0CFCF93DF93EC01FB0186179707F2
:1011A00049F0608171816115710541F0448155817B
:1011B0000E94A908CE01DF91CF9108950E9497085F
:1011C000F9CFCF92DF92EF92FF920F931F93CF93BD
:1011D000DF938C017B01EC0180E291E0899399938C
:1011E000680180E2C80ED11C198218821B821A8203
:1011F0001D821C8250E040E069E671E0CE010E9451
:10120000A9082696CC15DD0579F7E801A496F80122
:1012100015A214A217A216A211A610A650E040E033
:1012200069E671E0CE010E94A908B701CE010E94D3
:10123000CA088FEF9FEFF80191A380A393A382A325
:10124000DF91CF911F910F91FF90EF90DF90CF90A2
:101250000895FC0180819181009711F00C943C1558
:101260000895EF92FF920F931F93CF93DF9300D0D7
:1012700000D000D0CDB7DEB77C011A8219821C8263
:101280001B821E821D82CE0101960E94CA08BE01E9
:101290006F5F7F4FC7010E94E108CE0101960E9457
:1012A00029098AE491E0D7018D939C938FE190E026
:1012B0000E94A0148C01FC011382128288EE93E03C
:1012C000A0E0B0E084839583A683B78388E391E0B0
:1012D00091838083178A168A118E108E138E128E38
:1012E000158E148E668D6E7F6D7F668F669561702C
:1012F00081E0682786E00E944A0161E086E00E9462
:101300007801EEEDF1E0E491D8015096EC93EAEC2F
:10131000F1E0E491F0E0EE0FFF1FE654FE4F8591FF
:101320009491F801928B818B60E085E00E947801B6
:10133000D8015E968C9181FD04C061E085E00E9439
:101340004A0185E0F8018487EDEDF1E0E491D801F0
:101350001D96EC93E9ECF1E0E491F0E0EE0FFF1F55
:10136000E055FE4F85919491F80197878687D701C4
:101370009B961C930E939A978DE991E0958F848F9D
:101380008DEB90E0978B868B8BE991E0918F808F2E
:101390008CE291E0938F828F8091680084608093CB
:1013A000680094852DE630E0983050F02BE630E070
:1013B0009E3030F02CE630E0963110F030E020E046
:1013C000F801348B238B292F30E0983008F050C07F
:1013D00081E001C0880F9A95EAF7D80155968C9361
:1013E00055975C968D919C910197F1F7F801828D4C
:1013F000938D892B49F1E0910202F09103020E17BF
:101400001F0711F1309739F0A389B4899C91858920
:10141000809589238C93D8015E968C915E978E7F00
:101420005E968C935E9710920102109200021093C8
:101430000302009302025396ED91FC915497808130
:1014400055969C91892B808360E087E00E9478010B
:1014500087E0F70184A726960FB6F894DEBF0FBE8B
:10146000CDBFDF91CF911F910F91FF90EF90089525
:101470009E3040F42850310981E001C0880F2A9540
:10148000EAF7ABCF2E503109F7CFCB010C943C15C6
:101490005F926F927F928F929F92AF92BF92CF9204
:1014A000DF92EF92FF920F931F93CF93DF93FC0194
:1014B0006115710599F4D0E0C0E0CE01DF91CF91C4
:1014C0001F910F91FF90EF90DF90CF90BF90AF9062
:1014D0009F908F907F906F905F9008958481982F58
:1014E0009F7709F03FC0807880628483309719F33A
:1014F0008FEF808381838A017B013F015A0185E15F
:10150000A80EB11C6081C5010E94ED02EC0100979C
:1015100009F4B5C06D81892B09F4B1C0AE81BF81DA
:10152000F70101900020E9F73197CF018E199F094B
:10153000F0E0E0E0109739F0FD0101900020E9F7BC
:101540003197EA1BFB0B8E179F07E9F6F7018E0D0B
:101550009F1D8E179F0709F4B0CF31912D9132173F
:10156000C1F3D1CF85FFA7CF309729F6A4CF48018B
:10157000B5E08B0E911CF801C080D180878988234B
:1015800049F0C4010E940803C62FD72F209711F0FD
:10159000D82E8CC0D8015796CC91579758969C91CD
:1015A0005897C91326C0C03109F461C0CC0F5596B5
:1015B0006D917C91D601ED91FC91B4E0CB9FA0019F
:1015C00011248616970609F04AC00190F081E02D9B
:1015D000BA01C6010995009709F449C020E1F40158
:1015E000DC0101900D922A95E1F7F801968B858B2D
:1015F000C08FD80155962D913C9156975796CC9116
:10160000579781E08C0F57968C93B4E0CB9FE00105
:101610001124C20FD31F90E1592E803111F48FE0B5
:10162000582EE8E05E9EB0011124D601ED91FC91A8
:101630000190F081E02DC60109959B838A83892B57
:1016400009F4512C58821982CD2B89F0C4010E94D3
:101650000803C62FD72FD82E209741F508C0048045
:10166000F581E02DC6010995009709F0BECF81E014
:10167000F801828320CFF301D082D18224C0D80127
:101680005996DC90BFEFDB1609F471CF6D2DC501C3
:101690000E94ED02EC018D81D80159968C93209720
:1016A00031F31C828FEF8D831F821E82D30111962E
:1016B0006C916F3F01F3C5010E94ED02FC01D582E0
:1016C000D3011196DC928C818F778C83FF82EE821E
:1016D000F4CE8F929F92AF92BF92CF92DF92EF9211
:1016E000FF920F931F93CF93DF93CDB7DEB7CD5DFE
:1016F000D1090FB6F894DEBF0FBECDBF6C01DC017F
:1017000016968D919C91DC01ED91FC910284F385FC
:10171000E02D0995882309F499C18FB7F894409179
:10172000FC015091FD016091FE017091FF018FBF9E
:101730007E01B9EBEB0EF11C80E091E0F7019183A3
:101740008083128214821382C7010596968B858B43
:10175000178A84E0808F8FEF818F168EA70161E852
:1017600071E0C7014A960E94480A8C01009781F0F7
:10177000B7010E946E03D80114968C91149780785B
:10178000846014968C93149786E891E08D939C93D3
:10179000F6010085118560E0D80112968C910E94B7
:1017A0004A0183E090E00197F1F761E0F80182815E
:1017B0000E944A0183E290E00197F1F760E0D801CE
:1017C00012968C910E944A01F8018081918199279B
:1017D000FC01E852FE4F6491FC01EC53FE4FE49192
:1017E000F0E0EE0FFF1FE055FE4F8591949100E46D
:1017F00012E42FE030E0462F0E94BF0E4B015C0147
:1018000081149104A104B10439F0BFEF8B1A9B0A33
:10181000AB0ABB0AEFE0BE22A7016FE871E0C70187
:101820004A960E94480A8C01009741F1B7010E9434
:101830006E03D80114968C91149780788A60149660
:101840008C93B401990C880B990B0E94681226E9BD
:1018500033E44BE05DE30E94C71220E030E040E05B
:101860005FE30E94C7120E942914072E000C880B08
:10187000990BF80160837183828393838E010852F0
:101880001F4FD80111961C921E9213961C921E9205
:10189000129715961C921E92149750E040E069E64C
:1018A00071E0C8010E94A908CB56DF4F1983088355
:1018B000C559D040C954DF4F19821882C75BD04048
:1018C000C8010E94970884E2FE01EB56FF4FDE013B
:1018D000AF58BF4F01900D928A95E1F784E2FE0167
:1018E000EF58FF4FDE01A35BBF4F01900D928A9529
:1018F000E1F784E2FE01E35BFF4FDE019996019080
:101900000D928A95E1F784E2FE01B996DE01119607
:1019100001900D928A95E1F71EA21DA2CE01899633
:101920000E946B04F8A6EFA2CE01835B9F4F0E943A
:101930006B04BE016F5F7F4FC7014A960E94B805D6
:10194000CE0101960E946B04CE018F589F4F0E94DA
:101950006B04CE018B569F4F0E946B04F601C6802C
:10196000D780D601ED91FC91A680B7801A821982AA
:101970001C821B821E821D82B801CE0101960E942C
:10198000CA08BE016F5F7F4FC601F5010995CE0100
:1019900001960E942909C8010E942909D7010D91C9
:1019A0001C91D70113966D917C9114976115710567
:1019B00081F0FB018081918114969C938E93139703
:1019C000D801ED91FC910280F381E02DC8010995C9
:1019D000E8CFF701C080D180B12CD70155966D9129
:1019E0007C91569757968C915797B816D8F4B4E0D7
:1019F000BB9E80011124060F171FF80162817381BD
:101A00006115710541F0D601ED91FC910280F381E1
:101A1000E02DC6010995F80113821282108211820D
:101A2000B394DBCF57961C9257978FEF59968C93B0
:101A3000B5E0EB0EF11C6E157F0541F0D601ED917E
:101A4000FC910280F381E02DC6010995C352DF4F5E
:101A50000FB6F894DEBF0FBECDBFDF91CF911F91BF
:101A60000F91FF90EF90DF90CF90BF90AF909F903D
:101A70008F900895CF92DF92EF92FF920F931F9372
:101A8000CF93DF93CDB7DEB7A7970FB6F894DEBF3D
:101A90000FBECDBF7C01CB01BA01D701ED91FC9106
:101AA000C680D7801BA21AA21DA21CA21FA21EA222
:101AB0008E010F5F1F4F22E044E00E94D70F009776
:101AC00031F1FC0101900020E9F73197AF01481B8B
:101AD000590BBC01CE0182960E94A908BE016E5D21
:101AE0007F4FC701F6010995CE0182960E94290910
:101AF000A7960FB6F894DEBF0FBECDBFDF91CF9192
:101B00001F910F91FF90EF90DF90CF900895CE013D
:101B100082960E949708E2CFCF92DF92EF92FF92D7
:101B20000F931F93CF93DF93CDB7DEB768970FB6B0
:101B3000F894DEBF0FBECDBF7C01CB01D701ED9184
:101B4000FC91C680D7801C8A1B8A1E8A1D8A188E2B
:101B50001F8A4AE08E010F5F1F4FB8010E94F50FE8
:101B6000F80101900020E9F73197AF01401B510BBC
:101B7000B801CE0143960E94A908BE016D5E7F4F59
:101B8000C701F6010995CE0143960E94290968967E
:101B90000FB6F894DEBF0FBECDBFDF91CF911F917E
:101BA0000F91FF90EF90DF90CF9008951F920F92CA
:101BB0000FB60F9211242F933F938F939F93AF9360
:101BC000BF938091FC019091FD01A091FE01B09125
:101BD000FF013091FB0123E0230F2D3758F50196CB
:101BE000A11DB11D2093FB018093FC019093FD0189
:101BF000A093FE01B093FF018091F7019091F8014D
:101C0000A091F901B091FA010196A11DB11D809337
:101C1000F7019093F801A093F901B093FA01BF91F5
:101C2000AF919F918F913F912F910F900FBE0F9089
:101C30001F90189526E8230F0296A11DB11DD2CF43
:101C40001F920F920FB60F9211242F933F934F9331
:101C50005F936F937F938F939F93AF93BF93EF9314
:101C6000FF93E0910201F09103010995FF91EF913B
:101C7000BF91AF919F918F917F916F915F914F91A4
:101C80003F912F910F900FBE0F901F9018951F92AC
:101C90000F920FB60F9211242F933F934F935F93A0
:101CA0006F937F938F939F93AF93BF93EF93FF9324
:101CB000E0910202F0910302309749F0A685B785C2
:101CC0008585968D91FF14C09C918923A1F4FF9185
:101CD000EF91BF91AF919F918F917F916F915F91A4
:101CE0004F913F912F910F900FBE0F901F9018951D
:101CF0009C91892361F7A389B4899C9185898095FA
:101D000089238C93868997890197F1F7608D718D6E
:101D1000A685B785558538E020E0CB010197F1F71E
:101D2000822F90E095958795282F4C91452309F0B7
:101D30002068315091F7868D81FD209580910102B8
:101D400090E001968F73992730910002381799F02F
:101D5000A0910102B0E0A756BE4F2C9380930102E0
:101D6000828D938D0197F1F7A389B4898C91958920
:101D7000892B8C93ACCF868D8160868FF1CFCF92EB
:101D8000DF92EF92FF920F931F93E82FF92F05C078
:101D9000015011092109310961F1908196239417AD
:101DA000B9F305C0015011092109310911F19081E0
:101DB00096239413F7CFC12CD12CE12CF12C0AC01F
:101DC0008FEFC81AD80AE80AF80A0C151D052E0567
:101DD0003F0579F080818623841791F36C2D7D2D4A
:101DE0008E2D9F2D1F910F91FF90EF90DF90CF9040
:101DF000089560E070E080E090E01F910F91FF9007
:101E0000EF90DF90CF900895CF93DF9300D000D074
:101E100000D0CDB7DEB7789484B5826084BD84B538
:101E2000816084BD85B5826085BD85B5816085BDD5
:101E300080916E00816080936E001092810080918D
:101E40008100826080938100809181008160809315
:101E50008100809180008160809380008091B1003A
:101E600084608093B1008091B00081608093B00065
:101E700080917A00846080937A0080917A008260F9
:101E800080937A0080917A00816080937A008091BB
:101E90007A00806880937A001092C10084E090E01C
:101EA0000E94A0148C018AE090E0F8019183808365
:101EB0008BE090E09383828360E08AE00E94780167
:101EC00061E08BE00E9478011A8219821C821B82D9
:101ED0001E821D8242E050E065E971E0CE0101966C
:101EE0000E94A9088DE290E00E94A0147C01BE012E
:101EF0006F5F7F4F0E943109CE0101960E94290930
:101F00008AE090E00E94A014FC0180E391E09183BC
:101F10008083F782E6821187008788E893E19583C2
:101F200084831382128284E690E09093DF01809391
:101F3000DE0180E1809381001092800083E0809335
:101F4000DB0184ED90E39093DA018093D9019093C3
:101F500087008093860083E18093810089EA91E085
:101F6000909303018093020181E080936F001092AF
:101F7000E1011092E001BF018CED91E00E94D602D8
:101F800000E010E08CED91E00E9490020115110537
:101F9000C9F30E940000F6CF88E191E09093DD0143
:101FA0008093DC011092980110926F000895EF92D7
:101FB0000F931F93CF93DF93E80134E047FD34E1A3
:101FC000042E000C550B57FF03C051954195510944
:101FD000E32E022F242FAE010E941A10CE01DF91B2
:101FE000CF911F910F91EF900895BB274A3031F4A4
:101FF000992322F4BDE2909581959F4F0C94011096
:10200000BB27FB015527AA27880F991FAA1FA417D2
:1020100010F0A41B83955051B9F7A05DAA3308F0C6
:10202000A95DA193009779F7B111B1931192CB01FA
:102030000C945112A9E0B0E0E0E2F0E10C948B13B3
:102040006A01F22EB02E102FFBE3AF2EA01608F47B
:102050001BE31F5F012F27E0AE014F5F5F4F0E9420
:102060007911BC018981982F9970913009F43FC092
:102070009BE2E1FC04C09E2D9170E0FC3AC05E2D15
:102080005071E82FE87083FF46C084E0911101C0D1
:1020900083E0EF2DE81B8F1508F0E0E0D6018E2FCE
:1020A00020E2552351F1992329F0D6019C93C601D2
:1020B00001966C0196012D5F3F4FE2FE24C08EE435
:1020C000D6018C9391E411969C93119712968C9360
:1020D000D9018E2F90E281111BC0E20FF32FF11D69
:1020E00010828EEF9FEF2996ECE00C94A7139DE2EF
:1020F000C6CF90E2C4CF2D9381508111FCCFCE0E7C
:10210000D11CE0E0D0CF8EE6D6018C9391E6DBCFF8
:102110009D938150E0CF482F447082FF3DC084E002
:10212000911101C083E08F1510F4EF2DE81BD6014B
:102130008E2F20E2552309F1992329F0D6019C9393
:10214000C60101966C0196012D5F3F4FE2FE1BC058
:1021500089E4D6018C938EE411968C93119786E4D2
:1021600012968C93D9018E2F90E2882309F4B5CF73
:102170009D938150FACF2D9381508111FCCFCE0ECB
:10218000D11CE0E0D9CF89E6D6018C938EE611967A
:102190008C93119786E6E4CF9B0177FF02C030E075
:1021A00020E0A1E0B0E0911102C0B0E0A0E0F901B0
:1021B0003196AE0FBF1F8B2C912CBB2009F461C050
:1021C0005401EFEFAE1ABE0AAA0DBB1DFA161B068C
:1021D00019F014F04F2D4A1B511188C0E3FC59C06F
:1021E0007601A42FB0E2A1114FC0C40ED11C9923D7
:1021F00009F45BC040E0D6011196F60190836D01B1
:10220000552309F448C0012F060F9A81582F5071A9
:1022100084FF03C0913309F4015010160CF047C03D
:10222000093008F008E0EEE2FE2E5B01A01AB108CA
:1022300085019194819491082F3F320729F4D601AA
:10224000FC92F60131966F016217730794F1021741
:1022500013077CF5DB01A21BB30BAA24A394B12CBA
:10226000AC0EBD1EAA0DBB1D11968C9121503109DB
:10227000D601119628153905F4F0F60180836D0119
:10228000DBCFB12CA12CA0CFF701B1937F01A150DE
:10229000AACF9111B0CFD601942F50E302C05D9325
:1022A00091509111FCCFC40ED11C40E0ACCF01E0A5
:1022B000BACF80E3DBCF6217730731F4963388F42B
:1022C000953311F4552369F0F6018083FD01842FC5
:1022D00090E2811108C0A40FB11D1C9290E080E033
:1022E00002CF81E3F1CF91938150F3CF911183CF4E
:1022F0008ACF283008F027E03327DA01990F311D03
:1023000087FD916000966105710539F432602E5F9A
:102310003D9330E32A95E1F708959F3F30F08038F0
:102320007105610509F03C5F3C5F3D93913008F019
:102330008068911DDF93CF931F930F93FF92EF92CD
:10234000192F987F9695E92F96959695E90FFF2777
:10235000EE53FF4F99273327EE24FF24A701E7010F
:1023600005900894079428F4360FE71EF81E491FBD
:10237000511D660F771F881F991F0694A1F70590BE
:10238000079428F4E70EF81E491F561FC11D770F4A
:10239000881F991F661F0694A1F70590079428F4DB
:1023A000F80E491F561FC71FD11D880F991F661FA2
:1023B000771F0694A1F70590079420F4490F561F44
:1023C000C71FD81F990F661F771F881F0694A9F78C
:1023D00084911095177041F0D695C79557954795FC
:1023E000F794E7941A95C1F7E8E6F0E06894159041
:1023F000159135916591959105907FE27395E1185E
:10240000F10A430B560BC90BD009C0F7E10CF11EC2
:10241000431F561FC91FD01D7EF4703311F48A95D7
:10242000E6CFE894015030F0080F0AF400270217B5
:1024300008F4202F2395022F7A3328F079E37D9337
:102440002A95E9F710C07D932A9589F60694979509
:102450006795379517951794E118F10A430B560BBA
:10246000C90BD00998F023957E9173957A3308F0C3
:1024700070E37C932013B8F77E9170617D9330F008
:10248000839571E37D9370E32A95E1F71124EF9032
:10249000FF900F911F91CF91DF91992787FD909524
:1024A0000895DC01FC01672F71917723E1F73297E2
:1024B00004C07C916D9370836291AE17BF07C8F31F
:1024C00008950E94A31208F481E00895E89409C0D9
:1024D00097FB3EF490958095709561957F4F8F4F57
:1024E0009F4F9923A9F0F92F96E9BB279395F6956D
:1024F000879577956795B795F111F8CFFAF4BB0FEB
:1025000011F460FF1BC06F5F7F4F8F4F9F4F16C04E
:10251000882311F096E911C0772321F09EE8872FD8
:10252000762F05C0662371F096E8862F70E060E094
:102530002AF09A95660F771F881FDAF7880F96950D
:10254000879597F90895990F0008550FAA0BE0E8B1
:10255000FEEF16161706E807F907C0F01216130665
:10256000E407F50798F0621B730B840B950B39F4A5
:102570000A2661F0232B242B252B21F408950A260B
:1025800009F4A140A6958FEF811D811D08950E9439
:10259000DA120C944B130E943D1338F00E9444133E
:1025A00020F0952311F00C9434130C943A13112459
:1025B0000C947F130E945C1370F3959FC1F3950FE9
:1025C00050E0551F629FF001729FBB27F00DB11DB7
:1025D000639FAA27F00DB11DAA1F649F6627B00D47
:1025E000A11D661F829F2227B00DA11D621F739F30
:1025F000B00DA11D621F839FA00D611D221F749F3E
:102600003327A00D611D231F849F600D211D822F84
:10261000762F6A2F11249F5750409AF0F1F08823AB
:102620004AF0EE0FFF1FBB1F661F771F881F9150D8
:102630005040A9F79E3F510580F00C9434130C9440
:102640007F135F3FE4F3983ED4F3869577956795C3
:10265000B795F795E7959F5FC1F7FE2B880F911D02
:102660009695879597F9089597F99F6780E870E0A8
:1026700060E008959FEF80EC089500240A941616F8
:10268000170618060906089500240A941216130660
:10269000140605060895092E0394000C11F48823EE
:1026A00052F0BB0F40F4BF2B11F460FF04C06F5F0A
:1026B0007F4F8F4F9F4F089557FD9058440F551FE0
:1026C00059F05F3F71F04795880F97FB991F61F0B4
:1026D0009F3F79F087950895121613061406551F2B
:1026E000F2CF4695F1DF08C0161617061806991F97
:1026F000F1CF86957105610508940895E894BB278C
:1027000066277727CB0197F908952F923F924F9232
:102710005F926F927F928F929F92AF92BF92CF9271
:10272000DF92EF92FF920F931F93CF93DF93CDB77A
:10273000DEB7CA1BDB0B0FB6F894DEBF0FBECDBFF2
:1027400009942A88398848885F846E847D848C84C3
:102750009B84AA84B984C884DF80EE80FD800C81CC
:102760001B81AA81B981CE0FD11D0FB6F894DEBFAF
:102770000FBECDBFED0108955058BB27AA270E9478
:10278000D4130C944B130E943D1338F00E94441351
:1027900020F039F49F3F19F426F40C943A130EF408
:1027A000E095E7FB0C943413E92F0E945C1358F377
:1027B000BA17620773078407950720F079F4A6F526
:1027C0000C947E130EF4E0950B2EBA2FA02D0B0166
:1027D000B90190010C01CA01A0011124FF27591B66
:1027E00099F0593F50F4503E68F11A16F040A22F6C
:1027F000232F342F4427585FF3CF469537952795DD
:10280000A795F0405395C9F77EF41F16BA0B620BDB
:10281000730B840BBAF09150A1F0FF0FBB1F661F22
:10282000771F881FC2F70EC0BA0F621F731F841F65
:1028300048F4879577956795B795F7959E3F08F08B
:10284000B0CF9395880F08F09927EE0F979587954D
:1028500008950E9430146894B1110C947F13089568
:102860000E94641388F09F5798F0B92F9927B751A9
:10287000B0F0E1F0660F771F881F991F1AF0BA9524
:10288000C9F714C0B13091F00E947E13B1E00895F1
:102890000C947E13672F782F8827B85F39F0B93FE3
:1028A000CCF3869577956795B395D9F73EF49095D7
:1028B0008095709561957F4F8F4F9F4F08950E942F
:1028C000A31208F48FEF0895AA1BBB1B51E107C0A8
:1028D000AA1FBB1FA617B70710F0A61BB70B881FB0
:1028E000991F5A95A9F780959095BC01CD0108953F
:1028F000A1E21A2EAA1BBB1BFD010DC0AA1FBB1F04
:10290000EE1FFF1FA217B307E407F50720F0A21B75
:10291000B30BE40BF50B661F771F881F991F1A94E2
:1029200069F760957095809590959B01AC01BD010C
:10293000CF010895EE0FFF1F0590F491E02D09944B
:102940000F931F93CF93DF938230910510F482E0B1
:1029500090E0E0910602F091070230E020E0B0E064
:10296000A0E0309799F42115310509F44AC0281BDD
:10297000390B24303105D8F58A819B8161157105A9
:1029800089F1FB0193838283FE0111C04081518153
:102990000281138148175907E0F04817590799F445
:1029A000109761F012960C93129713961C9332961F
:1029B000CF01DF91CF911F910F91089500930602EF
:1029C00010930702F4CF2115310551F04217530738
:1029D00038F0A901DB019A01BD01DF01F801C1CF87
:1029E000EF01F9CF9093070280930602CDCFFE014D
:1029F000E20FF31F81939193225031093983288389
:102A0000D7CF2091040230910502232B41F420916D
:102A100006013091070130930502209304022091B2
:102A20000401309105012115310541F42DB73EB760
:102A30004091080150910901241B350BE0910402DB
:102A4000F0910502E217F307A0F42E1B3F0B2817A5
:102A5000390778F0AC014E5F5F4F2417350748F017
:102A60004E0F5F1F50930502409304028193919390
:102A70009FCFF0E0E0E09CCFCF93DF930097E9F0A9
:102A8000FC01329713821282A0910602B0910702D4
:102A9000ED0130E020E01097A1F420813181820F18
:102AA000931F20910402309105022817390709F07D
:102AB00061C0F0930502E0930402DF91CF91089585
:102AC000EA01CE17DF07E8F54A815B819E014115D7
:102AD0005105B1F7E901FB83EA8349915991C40F8C
:102AE000D51FEC17FD0761F4808191810296840F58
:102AF000951FE90199838883828193819B838A83CF
:102B0000F0E0E0E012968D919C9113970097B9F553
:102B10002D913C911197CD010296820F931F209128
:102B20000402309105022817390739F6309751F51C
:102B30001092070210920602B0930502A0930402BD
:102B4000BCCFD383C28340815181840F951FC817A6
:102B5000D90761F44E5F5F4F88819981480F591FF3
:102B6000518340838A819B81938382832115310520
:102B700009F0B0CFF0930702E09306029ECFFD016B
:102B8000DC01C0CF13821282D7CFB0E0A0E0EBEC23
:102B9000F5E10C9487138C01009751F4CB010E944E
:102BA000A0148C01C801CDB7DEB7E0E10C94A313EB
:102BB000FC01E60FF71F9C0122503109E217F307D1
:102BC00008F49DC0D901CD91DC911197C617D707A4
:102BD00098F0C530D10530F3CE01049786179707DA
:102BE00008F3C61BD70B2297C193D1936D937C93A7
:102BF000CF010E943C15D6CF5B01AC1ABD0A4C0137
:102C00008C0E9D1EA0910602B0910702512C412C02
:102C1000F12CE12C109731F580910402909105027E
:102C20008815990509F05CC04616570608F058C08B
:102C30008091040190910501009741F48DB79EB7F2
:102C40004091080150910901841B950BE817F90781
:102C500008F055C0F0930502E0930402F901718376
:102C60006083A0CF8D919C91119712966C901297D2
:102C700013967C901397A815B90559F56C0142E09D
:102C8000C40ED11CCA14DB0420F1AC014A195B0943
:102C9000DA011296159780F0628273825183408325
:102CA000D9016D937C93E114F10471F0D70113966F
:102CB000FC93EE93129776CF22968C0F9D1FF9010D
:102CC00091838083F301EFCFF0930702E093060234
:102CD00069CF4816590608F42C017D01D3019ACF1B
:102CE000CB010E94A0147C01009749F0AE01B8010D
:102CF0000E948716C8010E943C15870153CF10E03F
:102D000000E050CF81E090E0F8940C949716FB011E
:102D1000DC0102C001900D9241505040D8F7089557
:102D2000FB01DC0101900D920020E1F70895F89479
:022D3000FFCFD3
:102D32000E01E001000008028000000000003E04D5
:102D4200450A930800000000D6029002000000002D
:102D520041044104410441044104410400000000D3
:102D6200AD01690B00000000FA01B3018D02F90107
:102D720056026C02E10100000000D703CB038C0D68
:102D8200E8033A0D17040D0A002F2F22225C5C6221
:102D920008660C6E0A720D7409005C7530303030B2
:102DA200006E756C6C00747275650066616C73659B
:102DB20000747970650064697374616E636500768E
:082DC200616C756500425400CC
:00000001FF
